:020000040800F2
:1000000000500020E96300083164000831640008F2
:100010003164000831640008316400080000000009
:100020000000000000000000000000003164000833
:100030003164000800000000316400083B3D000806
:10004000316400083164000831640008316400083C
:1000500031640008316400082D3E0008333E00087A
:10006000393E00083F3E0008453E00083164000864
:10007000316400083164000831640008316400080C
:10008000316400083164000831640008715D0008C3
:10009000655D000831640008316400084B3E0008CB
:1000A000316400088D2E000831640008A12E00087C
:1000B000A52E0008B92E0008CD2E000831640008D6
:1000C00031640008316400083164000831640008BC
:1000D000316400083D470008554700087147000893
:1000E000733E000831640008755D000800000000E0
:1000F0000000000000000000000000000000000000
:0C01000000000000000000005FF808F1A3
:10010C00034613F8012B002AFBD1181A013870474B
:10011C0010B5054C237833B9044B13B10448AFF335
:10012C0000800123237010BD6C040020000000002F
:10013C00D86D000808B5034B1BB103490348AFF356
:10014C00008008BD0000000070040020D86D00087D
:10015C0043686BB18B4207D15B69436070478B423C
:10016C0002D15B69536170471A465B69002BF6D16B
:10017C00704738B5FFF7ECFF43680C4643B9416054
:10018C0006F052FA6368C01A0023A060636138BDA0
:10019C001A465B69002BFBD15461F1E738B50C466C
:1001AC0006F042FAA368626805461344984205D3E8
:1001BC00A2689A4208D9A268824205D8A268AA42CB
:1001CC0007D9A2689A4204D820462369E56098476B
:1001DC00A56038BD38B54468054600685CB1286830
:1001EC0008B1FFF7F7FF21462846FFF7D7FF6469F0
:1001FC00002CF4D138BD0028EDD1FBE70023034AD5
:10020C001360034B1A60034A136070479804002074
:10021C009004002088040020704710B50446342157
:10022C0003F0E5FB204610BD10B50446002100F09C
:10023C0067F894F830306BB1E3690BB120469847FE
:10024C00236A0BB120469847636A1BB12046BDE870
:10025C001040184710BD00F053B80023014680F839
:10026C0030308069FFF774BF90F8303010B5044619
:10027C0013B9012380F830302046002100F040F8FB
:10028C0000232146A069A362BDE81040FFF771BFAF
:10029C0038B504460D46074A002100F023F8064BFA
:1002AC0020462360054B6562A361FFF7DDFF204606
:1002BC0038BD00BF35020008F86D00088804002026
:1002CC00C161FFF7D1BF0162FFF7CEBF90F83000DC
:1002DC007047704710B50446182103F088FB204680
:1002EC0010BD000010B5054C026104604FF47A7427
:1002FC000022614382604160426110BD106E0008B3
:10030C004FF47A73594341607047000038B5836AE3
:10031C000446F3B100238362134B144D1B78EBB9E5
:10032C002968112081F0010106F004F92B68012BDA
:10033C0003D10F490F4805F0B9FE2B686421B3FABD
:10034C0083F320465B092B60FFF785FF0A4BA36202
:10035C0038BD0121112006F08FF8DDE7074905486B
:10036C0005F090FEE2E700BFB00500205C02002023
:10037C00436E00081807002020030008186E0008C0
:10038C00F8B50B4B01271D6814230A4C0A4E03FBCE
:10039C00054433681434AB4200DAF8BD022154F83A
:1003AC00100C06F069F8013504F8147CF1E700BF75
:1003BC00B40500200400002060020020826A2DE9B0
:1003CC00F04704461AB142F00102002310473849A5
:1003DC00384805F06BFE0122374B38481A70FFF78E
:1003EC003CFFFFF7CDFF64212046FFF734FF344B71
:1003FC00A362BDE8F087334A836213700021204664
:10040C00FFF729FF304BF3E7304D83622B70304BF5
:10041C00304E1B68DFF8C080D8F8002033609A4259
:10042C001DDA2B78274D0BB100232B702B48FFF7CF
:10043C004DFF10B92948FFF717FF2B78002BDDD0A3
:10044C0027491C4805F01EFE2648FFF706FFBDE8AD
:10045C00F0470122244B19481A70FFF705BF4FF0E3
:10046C001409DFF854A009FB03F3204F9AF800207D
:10047C00F85CF918B2FA82F35B0998420AD0486822
:10048C0006F092F801220F4B1A709AF80030834252
:10049C0003D12A7033680133BEE7B3FA83F35B09E7
:1004AC00834202BF326809FB02F2BB54F2E700BF81
:1004BC00626E000818070020B205002044050020D9
:1004CC0002040008B10500201404000808050020EF
:1004DC00B40500200C050020600200207C050020E3
:1004EC00186E000810050020B00500200400002044
:1004FC00142310B55843134986B00C18237ACBB982
:10050C006846114905F016FE61680A22C03903A835
:10051C0005F045FE03A9684605F06AFE01460B4846
:10052C0005F09FFD03A805F0C3FD684605F0C0FD6E
:10053C0006B010BD0B300144044806B0BDE81040B5
:10054C0005F094BD04000020766E0008180700200A
:10055C00836A2DE9F04104461BB143F001030022EC
:10056C0018472A4A2A492B48136005F08BFD2A4B61
:10057C001B682A4A254D12682B609A4206DA4FF402
:10058C007A712046FFF767FE254B30E04FF01408D8
:10059C00244E08FB03F3244F3278F85CF918B2FAB6
:1005AC0082F35B09984226D0486805F0FDFF2B6862
:1005BC0008FB03F3FA5C33789A421CD11B491548AB
:1005CC0005F054FD1A4B31781A4A1248002918BF0D
:1005DC001A46114605F04AFD2868FFF789FF0D48B9
:1005EC0005F048FD00212046FFF735FE124BA362B3
:1005FC00BDE8F0818262054B1B680133B9E782626A
:10060C00BDE8F0410D48FFF728BE00BF780500207B
:10061C00856E000818070020B40500206002002039
:10062C000A060008B205002004000020916E0008A4
:10063C00786E00087F6E0008000600087C0500201C
:10064C0070B5334C4FF41651324886B004F06AF949
:10065C002388314A013B13600225FFF791FE2F4E90
:10066C002C4804F061F968B92D4B2E4A1B6871684F
:10067C00B3FBF2F32C4A53437268521A9342FBDCDD
:10068C00012D43D12948FFF7E8FD2948FFF7E5FD87
:10069C002848FFF7E2FD284903A805F04BFD0A2284
:1006AC002188684605F069FD694603A805F0A0FDA0
:1006BC00224905F0A9FD0146164805F0EDFC6846F7
:1006CC0005F0F6FC03A805F0F3FC1D49114805F0F4
:1006DC00D9FC1C4903A805F02DFD68461A4905F004
:1006EC0029FD694603A805F083FD0146094805F07C
:1006FC00D3FC684605F0DCFC03A805F0D9FC1349D3
:10070C00044806B0BDE8704005F0BCBC0125A7E765
:10071C00000000201807002060020020001000E0FC
:10072C008C02002040420F0080841E001005002027
:10073C007C05002044050020966E0008A16E000880
:10074C00B16E0008D36E0008EB6E0008006F000855
:10075C000148FFF73FBD00BF8804002030B51421CD
:10076C000024064B064A1B68126806489A4200DAB7
:10077C0030BD01FB03F501334455F7E7B405002008
:10078C006002002017000020224B2DE9F0471F6863
:10079C0014238046204CDFF8849003FB0744204E42
:1007AC00D9F80030BB4201DABDE8F087637A012B3F
:1007BC002AD06068404527D0022B28D14FF00A0A76
:1007CC000025606805F042FEBAF1010A0544F8D133
:1007DC000A2395FBF3F0B8B90221606805F04CFED2
:1007EC00E37C7BB901230F49E3740F4805F03EFC11
:1007FC003846FFF77DFE0D490B4805F037FC0A48DB
:10080C0005F038FC0123337001371434C8E705F0C8
:10081C00CBFEE0E7B40500200400002060020020BD
:10082C00B10500201F6F0008180700202B6F00086F
:10083C002DE9F041836A86B013B143F001031847E8
:10084C001424DFF8D080FFF79BFD334DFFF786FFB4
:10085C00D8F80060314F04FB06543B68B3421ADAF7
:10086C001423D8F8006003FB065401253B681434AC
:10087C00B34241DA2A4B1B78002B46D129492A482E
:10088C0005F014FC2948FFF7EFFC294806B0BDE839
:10089C00F041FFF7E2BC637A012B2AD0606805F0C7
:1008AC0083FEC8B9234903A805F044FC0A226168F9
:1008BC00684605F074FC694603A805F099FC1E49CE
:1008CC0005F0A2FC0146184805F0E6FB684605F069
:1008DC00EFFB03A805F0ECFB0121606805F0CCFDF3
:1008EC000021606805F026FE6068FFF74DFFFFF7FA
:1008FC0047FD01361434B0E7002154F8100C05F014
:10090C00BBFD013604F8145CB0E70C49064805F051
:10091C00CDFBBAE7B40500200400002060020020E3
:10092C00B1050020516F0008180700204405002075
:10093C00D4040020336F0008416F0008816F000859
:10094C0008B50B490B48FFF7A3FC0B490B48FFF705
:10095C009FFC0B490B48FFF79BFC0B490B48FFF71F
:10096C0097FCBDE808400A490A48FFF791BC00BF54
:10097C005D0500087C0500201903000844050020D3
:10098C00C9030008100500203D080008D40400200D
:10099C00A5090008A004002008B5836A13B143F030
:1009AC00010318470D4803F047FFB0B10B4803F0A3
:1009BC0049FFC0B2302804D10948BDE80840FFF710
:1009CC0053BC084B1B7843B10748FFF77FFC20B999
:1009DC00064B1B780BB90448EFE708BD180700203D
:1009EC00D4040020B105002010050020B005002023
:1009FC007047000038B50E4B05461A784FF47A73E1
:100A0C00B3FBF2F30B4A1068B0FBF3F000F0F0FB11
:100A1C00044658B90F2D09D8024629464FF0FF302D
:100A2C0000F096FB2046044B1D6038BD0120FCE70E
:100A3C00640200208C02002068020020074A08B5DE
:100A4C001368032043F01003136000F06FFB0020C9
:100A5C00FFF7D0FFFFF7CCFF002008BD00200240BD
:100A6C00034A044B11681B780B441360704700BF9A
:100A7C00B805002064020020014B1868704700BFC5
:100A8C00B8050020F7B5002604460D460196FFF781
:100A9C00F3FF236807469A68D10508D50120A36A9D
:100AAC0084F8246043F02003A36203B0F0BD5A68BD
:100ABC00D20503D4DB6A13F4700F3DD03D4B0220FA
:100ACC001E6801F0A3FD23683B4A1969B6FBF0F6DA
:100ADC0011423A4A51D1D868394908424DD1196965
:100AEC0011425BD1DA68374B1A420CBF142329230D
:100AFC005E43019BB34223D26A1C04D0002D53D118
:100B0C00019BB3420AD3019B01330193F1E76E1CA5
:100B1C0013D065B923681B6898070DD4A36A03200A
:100B2C0043F00403A362002384F82430BDE7FFF7ED
:100B3C00A3FFC01BA842EDD8226813689907E6D51D
:100B4C006FF0120322681360A36A43F40073A3626C
:100B5C00936803F46023B3F5602F0CD1237B53B956
:100B6C00A36A23F48073A362A36ADB0403D4A36A8D
:100B7C0043F00103A362002097E71969114203D1E6
:100B8C00D968104A11420BD019690F4A114209D188
:100B9C00DB6813420CBF5423FC23A9E72923A7E7E6
:100BAC005423A5E7FC23A3E7FFF766FFC01BA8426D
:100BBC00A6D8A8E78C02002024499224922449123A
:100BCC002449920092244900499224000368D86C6D
:100BDC0070470000002373B5019390F8243004464D
:100BEC00012B6CD0012380F824304D680268062D4F
:100BFC00086805EB850322D81F26556B053B9E40E4
:100C0C0025EA060500FA03F32B43536309288B6886
:100C1C0000EB40054FF0070129D9D6681E3DA940CD
:100C2C0026EA0101AB400B43D360A0F11003012B6A
:100C3C0025D90020002384F8243002B070BD0C2D7F
:100C4C004FF01F0509D8166B233B9D4026EA05057E
:100C5C0000FA03F32B431363D8E7D66A413B9D405C
:100C6C0026EA050500FA03F32B43D362CEE710699D
:100C7C00A94020EA0101AB400B431361D9E7114BAA
:100C8C009A4216D193681B02D3D49368102843F46C
:100C9C0000039360CDD10C4B0C4A1B68B3FBF2F3F1
:100CAC000A2253430193019B002BC2D0019B013BB1
:100CBC00F8E7A36A012043F02003A362BAE70220FD
:100CCC00BBE700BF002401408C02002040420F0013
:100CDC00806A7047002337B50193036804469A680D
:100CEC00D20702D5002003B030BD9A6842F0010251
:100CFC009A60144B144A1B68B3FBF2F30193019BEB
:100D0C00E3B9FFF7B9FE054623689B68DB07E9D416
:100D1C00FFF7B2FE401B0228F6D923689B6813F03C
:100D2C000103F1D1A26A012042F01002A262E26A30
:100D3C0084F8243042F00102E262D4E7019B013BCB
:100D4C00DCE700BF8C02002040420F0010B590F889
:100D5C0024300446012B54D0012380F82430FFF7B3
:100D6C00B9FF002849D1A36A274A23F4407323F022
:100D7C00010343F48073A3622368934204D1234993
:100D8C004A6812F4702F2ED1A26A22F48012A26249
:100D9C005A68520541BFA26A22F4405242F4805272
:100DAC00A262A26A12F480521CBFE26A22F006020E
:100DBC00E262002284F824206FF002021A609A6822
:100DCC0002F46022B2F5602F13D10F4A934205D181
:100DDC00A2F58062526812F4702F0AD19A6842F41C
:100DEC00A0029A6010BDA26A42F48012A2624A6804
:100DFC00CFE79A6842F48012F3E7002384F824309A
:100E0C00F0E70220EEE700BF00280140002401407B
:100E1C0038B5036804469A68D10701D4002038BD60
:100E2C009A6822F001029A60FFF726FE05462368B5
:100E3C009B68DB07F2D5FFF71FFE401B0228F6D993
:100E4C0023689B68DA07F2D5A36A012043F01003EC
:100E5C00A362E36A43F00103E362E0E7F8B50446FA
:100E6C0000286DD0836A23B9C36280F8243002F065
:100E7C002FFE2046FFF7CCFFA36A13F0100361D1BD
:100E8C0000285FD1A26A616822F4885222F0020223
:100E9C0042F00202E569A668A262227B2943B6F5FC
:100EAC00807F41EA420136D0771E7D427D412D0282
:100EBC00277D012F06D182BBA269013A45EA423255
:100ECC0042F400652268B6F5807F576827F46947BD
:100EDC0045EA0705556097681D4D05EA070545EA83
:100EEC000105956001D0012E02D12369013B1B0540
:100EFC00D56A25F470052B43D3629268154B1340C9
:100F0C00994213D10023E362A36A23F0030343F055
:100F1C000103A362F8BD3546CAE7A26A42F020027B
:100F2C00A262E26A42F00102E262CBE7A36A23F01A
:100F3C00120343F01003A362E36A43F00103E3627C
:100F4C000120E7E7A36A43F01003A362F8E700BFB0
:100F5C00FDF7E1FFFE0E1FFF38B50446002850D008
:100F6C00836A43F002038362FFF752FF05460028B1
:100F7C0042D16FF01F02236820461A605968224A3A
:100F8C000A405A609968214A0A409A60DA6802F06D
:100F9C007F42DA601A6902F040421A6159691C4AB0
:100FAC0011405961996911409961D9691140D96110
:100FBC00196A11401962596A11405962996A0A40BA
:100FCC009A62DA6A134902F07F42DA62DA6A02F054
:100FDC007F42DA621A6B02F040421A635A6B02F0DB
:100FEC0040425A639A6B0A409A639A6B0A409A631E
:100FFC0002F0A0FDE562A562002384F824302846A7
:10100C0038BD0125FBE700BF00003FFFF00601FFE4
:10101C0000F0FFFF0000C0FF10B590F8243004462C
:10102C00012B11D0012380F82430FFF7F1FE38B9E1
:10103C00A36A23F4885323F0010343F00103A36252
:10104C00002384F8243010BD0220FCE7002373B584
:10105C00019390F824300446012B62D0012380F8D0
:10106C002430FFF7D5FE2046FFF734FE0546002856
:10107C002FD1A36A022023F4885323F0020343F0F8
:10108C000203A362284B1E6801F0C0FAB6FBF0F60F
:10109C0076000196019B03BB2268936843F008031A
:1010AC009360FFF7E9FC064623689A68110718D489
:1010BC009A6842F004029A60FFF7DEFC0646236849
:1010CC009B685B0723D4A36A23F0030343F001035B
:1010DC00A362002384F8243016E0019B013B0193AA
:1010EC00D8E7FFF7C9FC801B0A28DDD923689B6869
:1010FC001807D9D5A36A012523F0120343F0100376
:10110C00A362002384F82430284602B070BDFFF798
:10111C00B3FC801B0A28D2D923689B685A07CED50A
:10112C00E8E70225F0E700BF8C0200200749030224
:10113C00CA6803F4E06322F4E0621204120C134355
:10114C0043F0BF6343F40033CB60704700ED00E025
:10115C00154B30B5DC68C4F30224C4F10703251D1C
:10116C00042B28BF0423062D4FF0FF3594BF002419
:10117C00033C05FA03F321EA0303A54022EA050226
:10118C00A340002843EA0203ACBF00F16040074AC9
:10119C004FEA0313DBB2ABBF00F5614000F00F0068
:1011AC0080F80033135430BD00ED00E014ED00E086
:1011BC00002807DB01234109034A00F01F0083408C
:1011CC0042F82130704700BF00E100E000280CDB42
:1011DC0001220649430900F01F008240203341F8E8
:1011EC002320BFF34F8FBFF36F8F704700E100E0F8
:1011FC000138B0F1807F0BD24FF0E023F021054A8B
:10120C00586182F823100020072298611A617047F8
:10121C000120704700ED00E0002808DB01224309A3
:10122C00034900F01F008240603341F823207047CF
:10123C0000E100E0704708B5FFF7FCFF08BD704700
:10124C0010B5044650B1437903F0FF0213B9027193
:10125C00FFF7F5FF01230020637110BD0120FCE7AF
:10126C0090F821200346022A06D004228263012032
:10127C00002283F8202070470268C06B116821F0AF
:10128C000E011160116821F00101116001211A6C2D
:10129C0001FA02F24260002083F82110E8E7000016
:1012AC0008B590F82130022B03D00423836301206E
:1012BC0008BD03681A6822F00E021A601A6822F040
:1012CC0001021A60174A93421FD0143293421ED067
:1012DC00143293421DD0143293421DD014329342D7
:1012EC001DD01432934214BF4FF080734FF480130F
:1012FC000D4A5360012380F82130002380F8203000
:10130C00436B03B198470020D2E70123F0E7102389
:10131C00EEE74FF48073EBE74FF48053E8E74FF4BC
:10132C008033E5E70800024000000240044A08B59B
:10133C005169014202D0506102F05CFD08BD00BF52
:10134C0000040140F8B50446E0B190F8913203F086
:10135C00FF021BB980F8902204F060FC032384F890
:10136C00913200232546637155F8040B01F017FEEA
:10137C0095E80E00206801F002FE014628B1022318
:10138C0084F8913201252846F8BD206801F011FE41
:10139C000028F4D102460127267904F11003C1B2CA
:1013AC008E4203F1280318D800210A4604F5A873CD
:1013BC00C8B2864203F128031BD895E80E002068BA
:1013CC0001F0F9FD05460028D9D10123607320688E
:1013DC0084F8913202F0A4F8D5E743E9062203F829
:1013EC00277C03F8281C03F8252C43F8102C01301B
:1013FC00D5E743E9062203F8272C03F8280C03F859
:10140C00252C43F8102C0131D2E738B590F89032E6
:10141C000446012B10D0012580F89052006801F091
:10142C00B5FD2946204600F007FE206802F076F84C
:10143C00002084F8900238BD0220FCE710B590F82B
:10144C0090220446012A0AD00122417380F890228E
:10145C00006802F05DF8002084F8900210BD0220B4
:10146C00FCE700002DE9F04F044687B0006802F05D
:10147C0059F810F4004500F025844FF02809C54EAA
:10148C002068B0F84430190402D407B0BDE8F08FDE
:10149C00B0F84470B9B217F00F0740F0BF8011F0EC
:1014AC00100126D103889BB2334043F400430380E0
:1014BC00B0F85030227C9BB203EBC20300EB430329
:1014CC00B3F80434626AC3F309031A44E362204696
:1014DC00626204F004FC637B002BD1D0A26A002A68
:1014EC00CED1637B216843F08003A1F84C3062734A
:1014FC00C6E70588ABB215F4006521D0B0F85030C2
:10150C0094F850219BB203EBC20300EB4303B3F8F6
:10151C000C34B4F85621C3F30903C4F86C3104F548
:10152C00267102F046FA22682046138823F07003D5
:10153C001B051B0D43F08003138004F0C1FB9FE7D8
:10154C001B049DD5038823F070031B051B0D43F072
:10155C0080030380B0F8503094F850219BB203EB19
:10156C00C20300EB4303B3F80C34C3F30903C4F810
:10157C006C318BB1D4F8641171B1B4F8562102F00E
:10158C0018FAD4F86431D4F86C2129461344204657
:10159C00C4F8643104F09AFB21680A88170593B2E9
:1015AC003FF56EAF03F44053B3F5405F3FF468AFC3
:1015BC00B1F8502001F20C4092B2835AD4F8605129
:1015CC00C3F309033E2D83521DD9835A6F09ED06CF
:1015DC0008BF07F1FF379BB243EA87236FEA434307
:1015EC006FEA53439BB283520B8823F4804323F05E
:1015FC0070031B041B0C83F4405343F4004343F06F
:10160C0080030B803CE7835A002DE7D005F00107DF
:10161C009BB207EB550543EA8523E3E730F8273007
:10162C0019041FFA83F840F1F38030F8273009FBD6
:10163C00074223F070031B051B0D43F0800320F8B9
:10164C00273092F85C5192F85031D2F8641100F5C1
:10165C00806E95B9B0F85050ADB2063505EBC303AA
:10166C003EF81350C5F30905002D00F0B6802B464B
:10167C00B2F8562102F09DF9AFE092F85351022DC9
:10168C0040F08A8018F480450195B0F850504FEA2C
:10169C00C30BADB2D2F868C108F0400A5D443CD02F
:1016AC0002353EF81550C5F30905654514D94FF0C0
:1016BC00000CC2F868C130F8232022F4804222F0DA
:1016CC0070021204120C82F4005242F4004242F0F6
:1016DC00800220F8232006E0ACEB050CC2F868C1B0
:1016EC00BCF1000FE7D0BAF1000F0DD030F8232079
:1016FC0022F4E04222F070021204120C42F4004276
:10170C0042F0C00220F82320002D66D0282202FBD4
:10171C0007422B46B2F85821ACE706353EF8155077
:10172C00C5F30905654514D9DDF804C0C2F868C1D4
:10173C0030F8232022F4804222F070021204120CA2
:10174C0082F4005242F4004242F0800220F823203E
:10175C0006E0ACEB050CC2F868C1BCF1000FE7D099
:10176C00BAF1000F0DD130F8232022F4E04222F020
:10177C0070021204120C42F4004242F0C00220F833
:10178C00232055B3282202FB07422B46B2F85A21DC
:10179C0070E700BF0F8FFFFF30F8235025F4E045B2
:1017AC0025F070052D042D0C45F4004545F0C005C1
:1017BC0020F8235092F8505130F82530ED0013F4F6
:1017CC00804FB0F850309BB22B4452D002333EF8CD
:1017DC001350C5F30905002D9BD109FB07F16318C4
:1017EC00D3F86C212A44C3F86C21D3F864212A4421
:1017FC00C3F86421D3F868211AB1D3F860319D4243
:10180C003FD209FB0743204693F8501104F05EFACF
:10181C0018F0800F3FF434AE206809FB07FC30F859
:10182C0027309BB2334043F4004320F8273004EBBD
:10183C000C03DA7C012A54D1002107FB0992A15038
:10184C001A7F82B318F040085A7C34D002BBB0F82F
:10185C0050201B7C92B21B0100F2044010441A5A17
:10186C00C2F309021A521A5A92B242F400421A52A4
:10187C0019E006333EF81350C5F30905002DACD022
:10188C0083E701F5A8712068214401F061FEBFE7F0
:10189C00012A08D1B0F850201B7C92B200F204400F
:1018AC001B0110441952282303FB0743197C2046C3
:1018BC0004F015FAE4E53AB9B0F850201B7C92B26A
:1018CC001B0100F20C40C9E7012AECD1B0F8502002
:1018DC001B7C92B200F20C401B01104423F80080D8
:1018EC00E1E7197CB0F850504FEAC10AADB218F4D8
:1018FC00807B9A6A00F5806E554417D102353EF80C
:10190C001550C5F30905954202D3C3F828B0CEE7AC
:10191C00521B9A625A6A0CF110012A445A62DA6A12
:10192C0021442A44DA6201F013FEA9E518F0400CB8
:10193C0008F4804800F0E48002353EF815501FFA98
:10194C0088F8C5F3090595422CBF0022521B9A62F8
:10195C00002A55D1282303FB07435B7C002B3DD188
:10196C00B0F8502000F2044592B20B011544EA5A2B
:10197C00C2F30902EA52EA5A6FEA42426FEA524251
:10198C0092B2EA52B0F8502000F20C4092B21044DD
:10199C00C25AC2F30902C252C25A6FEA42426FEAF9
:1019AC00524292B2C252204604F099F9B8F1000F9B
:1019BC0000F0E480282303FB07432268197C32F8EB
:1019CC00213023F4E04323F070031B041B0C43F47D
:1019DC00404343F0800322F82130CFE0012BE2D1C9
:1019EC00B0F850C000F204451FFA8CFC65440B01A2
:1019FC00EA52B0F8505000F20C40ADB22844D1E796
:101A0C00B8F1000F0DD030F8212022F4E04222F082
:101A1C0070021204120C42F4404242F0800220F890
:101A2C0021204FF0280E0EFB074E9EF83420012A81
:101A3C0040F0A480DEF8242002EB050CCEF824C084
:101A4C00DA6A2A44DA62DEF83030DEF8202093427B
:101A5C0031D39B1ACEF83030282303FB07435D7C2F
:101A6C0093B2002D41D1B0F850E000F204451FFABA
:101A7C008EFE7544090135F801E03E2ACEF3090EBD
:101A8C0025F801E023D94FEA521ED2066A5A08BF44
:101A9C000EF1FF3E92B242EA8E226FEA42426FEAA8
:101AAC00524292B26A52282202FB0742128B6146C2
:101ABC0001F03EFD62E01BB92A468EF83430CBE7CC
:101ACC0000228EF83420CEF830201A46C4E70AB92A
:101ADC006A5AE2E735F801E002F001081FFA8EFEBF
:101AEC0008EB52024EEA8222DBE7012DDBD1B0F883
:101AFC00505000F20442ADB22A4409015352D2E7CD
:101B0C0006353EF815501FFA88F8C5F309059542BD
:101B1C008CBF6246521B9A62002A57D1282303FBC2
:101B2C0007435B7C002B3FD1B0F8502000F20445FA
:101B3C0092B20B011544EA5AC2F30902EA52EA5A6C
:101B4C006FEA42426FEA524292B2EA52B0F8502027
:101B5C0000F20C4092B21044C25AC2F30902C252B3
:101B6C00C25A6FEA42426FEA524292B2C2522046C5
:101B7C0004F0B5F8B8F1000F3FF41CAF282303FBB9
:101B8C0007472268397C32F8213023F4E04323F0F4
:101B9C0040031B041B0C83F0300343F4004343F05D
:101BAC00800322F821306BE4012BE0D1B0F850C057
:101BBC0000F204451FFA8CFC65440B01EA52B0F8A4
:101BCC00505000F20C40ADB22844CFE7B8F1000FF2
:101BDC000DD130F8212022F4E04222F070021204E0
:101BEC00120C42F4404242F0800220F821204FF0C7
:101BFC00280E0EFB074E9EF83420012ABED1DEF8CB
:101C0C00242002EB050CCEF824C0DA6A2A44DA62EE
:101C1C00DEF83030DEF8202093422ED39B1ACEF81B
:101C2C003030282303FB07435D7C93B2002D3ED15B
:101C3C00B0F850E000F20C451FFA8EFE7544090115
:101C4C0035F801E03E2ACEF3090E25F801E020D943
:101C5C004FEA521ED2066A5A08BF0EF1FF3E92B2EC
:101C6C0042EA8E226FEA42426FEA524292B26A52C2
:101C7C00282202FB0742528B19E71BB92A468EF821
:101C8C003430CEE70022CEF830208EF834201A46BD
:101C9C00C7E70AB96A5AE5E735F801E002F001082E
:101CAC001FFA8EFE08EB52024EEA8222DEE7012D6D
:101CBC00DED1B0F8502000F20C4592B215440A0166
:101CCC00AB52D5E7420512D522682046B2F8443013
:101CDC0023F480631B041B0CA2F8443004F00BF8B3
:101CEC002946204607B0BDE8F04FFFF7A7BB4304D9
:101CFC000AD52268B2F8443023F480431B041B0C31
:101D0C00A2F84430FFF7C1BB870405D52268B2F8AE
:101D1C00443023F40053F1E7C60419D52268204659
:101D2C00B2F8403023F004031B041B0CA2F8403023
:101D3C00B2F8403023F008031B041B0CA2F840300F
:101D4C0003F0F6FF2268B2F8443023F48053D5E751
:101D5C00050548D5236802AD184629461A4603F1F5
:101D6C00200632F8047B964221F8027BF9D1B3F8B5
:101D7C00402092B242F00102A3F84020B3F8402078
:101D8C0022F001021204120CA3F84020B3F84420F4
:101D9C005105FBD5B3F8442022F480621204120CD6
:101DAC00A3F8442035F8022B20F8042B8642F9D1F5
:101DBC00B3F84020204692B242F00802A3F840202B
:101DCC00B3F8442022F400621204120CA3F844204D
:101DDC00B3F8402092B242F00402A3F8402003F082
:101DEC0097FFFFF752BB82050DD522682046B2F84B
:101DFC00443023F400731B041B0CA2F8443003F092
:101E0C0076FFFFF742BBC3057FF53FAB2268B2F804
:101E1C00443023F4807371E770B52824054601F033
:101E2C000700444311F0800F14BF04F1100104F5B6
:101E3C00A87105EB040615BF01240024747486F800
:101E4C00514114BF49194919022BCB7008BF00230B
:101E5C00087008BF0B710A6195F89032012B09D0FC
:101E6C000123286885F8903201F0B6F8002085F837
:101E7C00900270BD0220FCE7282301F007025343B7
:101E8C0011F0800F10B5044618BF03F1100118446F
:101E9C000BBF03F5A8710123002309190ABF091907
:101EAC00437480F851310A7094F89032012B09D0A8
:101EBC000123206884F8903201F0EEF9002084F8B8
:101ECC00900210BD0220FCE770B52824002601F01A
:101EDC0007014C43051985F8501185F8516104F53B
:101EEC00A8710144C5E95923C5F86C61006801F07B
:101EFC002FFB304670BD282301F0070103FB0100C6
:101F0C00D0F86C01704770B5282501F007014D43DE
:101F1C004419C4E9092301220026217484F83420D1
:101F2C00627405F1100101442363E662006801F05C
:101F3C000FFB304670BD38B5037901F00705AB4295
:101F4C0004462AD311F0800F4FF028031CD0012235
:101F5C006B4303F11001034401445A7401230D70C7
:101F6C008B7094F890229A4219D0206884F89032A1
:101F7C0001F065FA25B9206804F5267101F0D6FA4E
:101F8C00002084F8900238BD00224B4303F5A87161
:101F9C000344014483F85121E0E70120F3E70220D8
:101FAC00F1E738B5027901F00F039A42044626D3C3
:101FBC00282301F00702534311F0800F14BF03F1E3
:101FCC00100103F5A87118444FF0000515BF01234B
:101FDC0000230919091914BF437480F851318D700D
:101FEC000A7094F89032012B0BD00123206884F8EE
:101FFC00903201F044FA284684F8905238BD012002
:10200C00FCE70220FAE710B5282411F0800F1BBF63
:10201C0001F0070104FB010004FB0100103008BFB4
:10202C0000F5A87099B21AB90273C180002010BDD6
:10203C00012283600273F9E7704700002DE9F34138
:10204C00054638B30368DB0710D42B689F075ED4B2
:10205C002B68190700F195802B685A0700F1C18095
:10206C00EB69002B40F02C81002029E0904C636838
:10207C0003F00C03042B07D0636803F00C03082B4C
:10208C000AD16368DE0307D523689C03DDD56B6832
:10209C00002BDAD1012013E06B68B3F5803F12D12D
:1020AC00236843F480332360FEF7E6FC064623687E
:1020BC009803CAD4FEF7E0FC801B6428F7D90320F0
:1020CC0002B0BDE8F0819BB9236823F48033236010
:1020DC00236823F480232360FEF7CEFC0646236896
:1020EC009903B2D5FEF7C8FC801B6428F7D9E6E744
:1020FC00B3F5A02F236803D143F480232360CFE7EB
:10210C0023F480332360236823F48023CBE7684CCB
:10211C00636813F00C0F07D0636803F00C03082BF3
:10212C0010D16368DA030DD423689B0702D52B69A1
:10213C00012BAFD123686A6923F0F80343EAC20389
:10214C00236085E72A695B4B6AB101221A60FEF7AE
:10215C0093FC064623689F07ECD4FEF78DFC801B8E
:10216C000228F7D9ABE71A60FEF786FC064623680F
:10217C0098077FF56DAFFEF77FFC801B0228F6D920
:10218C009DE7AA694A4E4B4BE2B10122C3F8802469
:10219C00FEF772FC0446736A9B070DD54FF4FA5296
:1021AC00454B1B68B3FBF2F3019300BF019B5A1E16
:1021BC000192002BF9D14FE7FEF75EFC001B0228C1
:1021CC00E9D97CE7C3F88024FEF756FC0446736A11
:1021DC009F077FF541AFFEF74FFC001B0228F6D995
:1021EC006DE7334CE369D80024D40127E36943F04D
:1021FC008053E361E36903F080530093009B2F4EFF
:10220C003368D90518D5EB68012B26D1236A43F026
:10221C0001032362FEF730FC41F288380646236A3C
:10222C009B073FD5002F3FF41BAFE36923F080538E
:10223C00E36115E70027E2E7336843F4807333600A
:10224C00FEF71AFC80463368DA05DCD4FEF714FC82
:10225C00A0EB08006428F6D931E7ABB9236A41F248
:10226C00883823F001032362236A23F004032362DA
:10227C00FEF702FC0646236A9807D3D5FEF7FCFB53
:10228C00801B4045F7D91AE7052B236A03D143F08D
:10229C0004032362BAE723F001032362236A23F0C9
:1022AC000403B6E7FEF7E8FB801B4045B7D906E709
:1022BC0000100240000042428C02002000700040DE
:1022CC002A4C626802F00C02082A3ED00022022B33
:1022DC00274B1A662CD1FEF7CFFB064623689901D3
:1022EC0020D42B6AB3F5803F05D16268A96822F42B
:1022FC0000320A436260696A62680B4322F474120A
:10230C001343012263601A4B1A66FEF7B5FB0546B0
:10231C0023689A013FF5A8AEFEF7AEFB401B0228DE
:10232C00F6D9CCE6FEF7A8FB801B0228D6D9C6E668
:10233C00FEF7A2FB054623689B017FF595AEFEF7E1
:10234C009BFB401B0228F6D9B9E6012B3FF4A2AE49
:10235C0060682B6A00F480329A427FF49BAE6B6A01
:10236C0000F47010C01A18BF0120A9E6001002403A
:10237C00000042420D4A536803F00C01082912D1A7
:10238C000B48C3F38341DB03405C09D55368094A0E
:10239C00C3F340435043084AD35CB0FBF3F070479F
:1023AC00064B584370470348704700BF001002406B
:1023BC004270000800127A004070000800093D00CD
:1023CC002DE9F0410D46044610B90120BDE8F0811D
:1023DC00444A136803F007038B4228D321688E0705
:1023EC0030D4CA0743D43F4A136803F00703AB4207
:1023FC0065D822683C4D12F0040F6CD1130706D53A
:10240C006B68226923F4605343EAC2036B60FFF7E5
:10241C00B1FF6B68354AC3F30313D35CD840344B1C
:10242C001860344B1868FEF7E5FA0020CEE7136805
:10243C0023F007030B431360136803F007038B426D
:10244C00C3D1CBE7284B11F0040F1EBF5A6842F4DE
:10245C00E0625A60080742BF5A6842F460525A6000
:10246C005A68A06822F0F00202435A60B9E7626829
:10247C001D4E012A33681AD113F4003FA5D073689E
:10248C0041F2883823F0030313437360FEF7F4FA28
:10249C0007467368626803F00C03B3EB820FA2D09B
:1024AC00FEF7EAFAC01B4045F3D903208EE7022A57
:1024BC0002D113F0007FE1E713F0020FDEE713689F
:1024CC0023F007032B431360136803F00703AB429D
:1024DC007FF47BAF8DE76B68E16823F4E0630B431B
:1024EC006B608BE70020024000100240AC700008CB
:1024FC008C02002068020020044B054A5B68C3F381
:10250C00C223D35C034A1068D840704700100240C5
:10251C00A47000088C02002003682DE9F3410546E5
:10252C00D80720D5364CE369D9002AD40126E369B3
:10253C0043F08053E361E36903F080530193019B03
:10254C00304F3B68DA051ED5236A13F440732ED145
:10255C00236A6A6823F44073134323621EB1E36950
:10256C0023F08053E3612A68910706D52449A868B3
:10257C004B6823F4404303434B60D30637D400200D
:10258C0012E00026DCE73B6843F480733B60FEF707
:10259C0073FA80463B68DB05D6D4FEF76DFAA0EBE8
:1025AC0008006428F6D9032002B0BDE8F0816A68FF
:1025BC0002F440729A42CBD00120134A236AC2F82B
:1025CC004004002023F44071DF07C2F8400421626C
:1025DC00BED5FEF751FA41F288380746236A9807B0
:1025EC00B6D4FEF749FAC01B4045F7D9DBE7044ADD
:1025FC00E968536823F480030B435360BFE700BFC3
:10260C00001002400070004000004242022808B551
:10261C0044D0102803D0012822D0002034E0254BD0
:10262C005A68186810F080702ED0C2F3834122488B
:10263C00D20348BF5A68405C41BF2049C2F34042B4
:10264C00895C1F4A5B684CBFB2FBF1F21D4A5B020E
:10265C0002FB00F018D403234000B0FBF3F013E0AE
:10266C0040F20231134A136A1940B1F5817F1ED032
:10267C0003F44073B3F5007F07D149F64040536A29
:10268C0013F0020F08BF002008BDB3F5407FC4D182
:10269C0013684FF2244013F4003FF3E7FFF72CFFCD
:1026AC00044B5B68C3F3813301335B00D5E74FF414
:1026BC000040E9E700100240547000085270000816
:1026CC0000127A0000093D0070477047036870B52E
:1026DC00DD681E690446B1070DD5AA070BD56FF04E
:1026EC0002021A61012202779B699B0769D000F0F4
:1026FC0044FC00232377710710D56A070ED56FF0C1
:10270C000402236820461A61022222779B6913F483
:10271C00407F5CD000F031FC0023237733070FD5CA
:10272C0028070DD56FF00802236820461A61042291
:10273C002277DB69990750D000F01FFC0023237728
:10274C00F20610D5EB060ED56FF01002236820466A
:10275C001A6108222277DB6913F4407F43D000F022
:10276C000CFC00232377F00708D5E90706D56FF09A
:10277C000102236820461A6100F0DCFB320608D502
:10278C002B0606D56FF08002236820461A6100F0F4
:10279C0090F8700608D5690606D56FF040022368DC
:1027AC0020461A61FFF791FFB20622D5AB0620D561
:1027BC006FF0200223682046BDE870401A6100F0DB
:1027CC0077B800F0D8FB2046FFF77EFF91E700F0CA
:1027DC00D2FB2046FFF778FF9EE700F0CCFB2046AB
:1027EC00FFF772FFAAE700F0C6FB2046FFF76CFF6D
:1027FC00B7E770BD174A036890420AD0B0F1804F1A
:10280C0007D0A2F59432904203D002F58062904238
:10281C0007D14A6823F070031343CA6823F440734A
:10282C0013434A6923F08003134303608B68C3622C
:10283C000B688362074B984204BF0B690363012347
:10284C0043610369DB0742BF036923F001030361A2
:10285C00704700BF002C014010B5044630B390F80F
:10286C003D3003F0FF021BB980F83C2001F094FED0
:10287C000223206884F83D30211DFFF7BBFF0123A4
:10288C00002084F8463084F83E3084F83F3084F8D9
:10289C00403084F8413084F8423084F8433084F876
:1028AC00443084F8453084F83D3010BD0120FCE7FD
:1028BC0070477047026802F10C0353E8003F23F4A1
:1028CC0090730C3242E8003102680029F2D102F117
:1028DC00140353E8003F23F0010302F1140C4CE8FD
:1028EC0000310029F3D1036B012B0BD102F10C0346
:1028FC0053E8003F23F0100302F10C0C4CE80031BC
:10290C000029F3D1202380F8423000230363704761
:10291C0090F84130202B10D189B182B1C2848284CD
:10292C000023212201620168436480F84120CA68B7
:10293C00184642F08002CA6070470220704701209E
:10294C00704708B50023406AC385C38401F0B2FE0A
:10295C0008BD704790F8423007B5222B42D18168F0
:10296C000268B1F5805F836A3FD1016900293FD1CC
:10297C005268C2F3080223F8022B8362C38D013B19
:10298C009BB2C385002B2DD10268D16821F02001A8
:10299C00D160D16821F48071D160516921F00101BD
:1029AC005161202280F842204363026B012A0268A5
:1029BC0028D1036302F10C0353E8003F23F010030A
:1029CC0002F10C0C4CE800310029F3D11368DB0642
:1029DC0005D501911368019353680193019B818D77
:1029EC00FFF7B7FF03B05DF804FB39B9016929B9EA
:1029FC005268D2B21A70836A0133BEE7526802F091
:102A0C007F02F7E701F050FEECE70000036873B5B6
:102A1C001A6804461607D9685D6908D1960668D508
:102A2C008D0666D502B0BDE87040FFF793BF05F088
:102A3C00010001F4907505435BD0D60705D5CD0593
:102A4C0042BF636C43F001036364530704D518B1B0
:102A5C00636C43F002036364960704D518B1636C8E
:102A6C0043F004036364150707D501F02003034307
:102A7C001EBF636C43F008036364636C002B32D09D
:102A8C00920604D58B0602D52046FFF763FF266815
:102A9C0020467369626C03F0400302F0080253EAAB
:102AAC00020522D0FFF706FF73695E0618D522686F
:102ABC0002F1140353E8003F23F04003143242E8C0
:102ACC0000310029F3D1E06B50B1744B4363FEF736
:102ADC00E7FB40B1E06B436B02B0BDE870401847B8
:102AEC00204601F0E7FD02B070BD01F0E3FD656426
:102AFC00F9E7206B012840F09480D50640F19180D5
:102B0C00C80640F18E80002201921A6801925A6820
:102B1C000192019A5A6952064DD5E16B0A685268C6
:102B2C0092B2002ADFD0A08D9042DCD9E2858A696E
:102B3C00202A36D003F10C0252E8002F22F48072C6
:102B4C0003F10C0040E800210029F3D103F1140239
:102B5C0052E8002F22F0010203F1140040E800219A
:102B6C000029F3D103F1140252E8002F22F04002A5
:102B7C0003F1140040E800210029F3D1202284F84D
:102B8C004220216303F10C0252E8002F22F01002C4
:102B9C0003F10C0040E800210029F3D1E06BFEF7B3
:102BAC005FFB02236363E38DA18DC91A89B22046B2
:102BBC00FFF7CFFE97E7E28DE18D92B289B2002943
:102BCC0091D0A18D891A89B200298CD003F10C0205
:102BDC0052E8002F22F4907203F10C0545E8002016
:102BEC000028F3D103F1140252E8002F22F0010265
:102BFC0003F1140545E800200028F3D1202284F8C5
:102C0C004220206303F10C0252E8002F22F0100244
:102C1C0003F10C0545E800200028F3D1022363637F
:102C2C00C5E7160628D50D0626D594F84120212A8D
:102C3C007FF459AFA168226AB1F5805F17D1216981
:102C4C00A9B932F8021BC1F3080159602262E28C67
:102C5C00013A92B2E284002A7FF445AFDA6822F09E
:102C6C008002DA60DA6842F04002DA603BE7511C1D
:102C7C00216212785A60EAE750067FF534AF4A06B3
:102C8C007FF531AFDA68204622F04002DA6020236B
:102C9C0084F8413001F00BFD25E700BF4F290008F7
:102CAC0090F84030012B11D02423026880F8413079
:102CBC00D36823F00C0343F00803D360202380F87F
:102CCC004130002380F8403018467047022070478E
:102CDC0090F84030012B11D02423026880F8413049
:102CEC00D36823F00C0343F00403D360202380F853
:102CFC004130002380F8403018467047022070475E
:102D0C0090F8412090F84200104370470023C28590
:102D1C00436422238285026980F842308162036811
:102D2C001AB1DA6842F48072DA605A69002042F013
:102D3C0001025A61DA6842F02002DA60704770B51D
:102D4C0090F84260202E07D141B13AB100240463BF
:102D5C00FFF7DCFF204670BD0220FCE70120FAE7FC
:102D6C00836810B504462BB1032201469847002313
:102D7C00C4E9023310BD836810B5044613B10322B5
:102D8C0001469847204610BD0B4B98420BD0B0F132
:102D9C00804F0AD0A3F59433984208D003F5806392
:102DAC00984206D0FEE700207047012070470220B1
:102DBC0070470320704700BF002C0140024670B5DD
:102DCC00044652F8100FFFF7DFFF0546104601F0DE
:102DDC0075FB0023084A04F1600642F82530E360D5
:102DEC0004F1B005B54204D0103D2846FFF7C3FFEF
:102DFC00F8E7204670BD00BFBC050020F8B50446BE
:102E0C000846FFF7C1FF236903B1FEE71B4D04F130
:102E1C000C0245F820200E2204F110063046C4E9BD
:102E2C000C33C4E90E33C4E91033C4E91623216111
:102E3C0084F82C30A36484F84C3084F84D30E46072
:102E4C0001F0F8FA04F1600504F1B00728461035DA
:102E5C00FFF786FFBD42F9D100234FF6FF72C4E99C
:102E6C000033C4E90632C4E90833A36063618023EC
:102E7C003046A362BDE8F840FFF7EEBCBC0500206D
:102E8C00034B186810B10430FFF720BC704700BF2B
:102E9C00BC050020FFF7F4BF034B586810B1043099
:102EAC00FFF714BC704700BFBC050020034B9868AB
:102EBC0010B10430FFF70ABC704700BFBC050020FE
:102ECC00034BD86810B10430FFF700BC704700BF4B
:102EDC00BC0500200022C0E90022C0E90222704794
:102EEC00F8B504460E4600F1600500F1B00728461F
:102EFC001035FFF7EFFFBD42F9D1002320463146D4
:102F0C002361FFF77BFF2046F8BD826810B50AB934
:102F1C0003F058FFC368BDE81040184708B500B966
:102F2C00FEE701F085FA0068836E13B16030FFF79D
:102F3C00ECFF08BDFFF7F2BF10B500B9FEE7037F49
:102F4C00013B072B10D8DFE803F004140F100F0F10
:102F5C000F12012401F06CFA0068063400EB041027
:102F6C0083680BB1FFF7D1FF10BD0324F2E70424F3
:102F7C00F0E70224EEE7FFF7DFBFFFF7DDBF84B019
:102F8C0004A800E90E00002004B0704703464FF47B
:102F9C003F420020A3F84400A3F840207047B0F84B
:102FAC00403023F47C535B045B0CA0F840300020D1
:102FBC007047002070471FB5044604A800E90E00B6
:102FCC0000200123A4F84030A4F84000A4F84400E9
:102FDC00A4F8500004B010BDF0B50A78CD7830F8E4
:102FEC002240034624F4EC4424F070042404240C02
:102FFC00032D03D8DFE805F041494745012048F28D
:10300C0080073C4323F8224033F822409F4EA4B261
:10301C00344014433C4323F822400C7B03EB021C4A
:10302C00002C40F08C80CC884F78640864007FB30F
:10303C00B3F8501089B26144A1F8004433F822105F
:10304C004C0609D533F8221089B2314041F40041C5
:10305C0041F0C00123F8221033F822108C4C89B2B5
:10306C00012D01EA040101D081F0200141F400415D
:10307C0041F0800123F822104DE0284644F40074FE
:10308C00BDE744F4C0640020B9E744F48064FAE777
:10309C00B3F85050ADB26544A5F80844B3F85040AD
:1030AC00A4B26444B4F80C54C5F30905A4F80C5448
:1030BC000D693E2D30D9E906B4F80C144FEA5516BB
:1030CC0008BF06F1FF3689B241EA86216FEA414119
:1030DC006FEA514189B2A4F80C1433F822104F0452
:1030EC000DD533F8221021F4E04121F070010904D0
:1030FC00090C41F4404141F0800123F82210654C49
:10310C00B2B91A8892B2224082F4405242F4004280
:10311C0042F080021A80F0BDB4F80C14002DD5D00A
:10312C0005F0010689B206EB550541EA8521D1E788
:10313C0033F8221089B2214081F4005196E7022D18
:10314C0033F822405BD1A4B2344044F4014444F03F
:10315C00800423F82240B3F850400E89A4B27608BC
:10316C0064447600A4F800644E89B3F850407608A5
:10317C00A4B264447600A4F808644978002948D1C4
:10318C0033F822104E040DD533F8221021F4E0410F
:10319C0021F070010904090C41F4404141F0800117
:1031AC0023F8221033F822104D060DD533F82210D7
:1031BC0021F4E04121F070010904090C41F40041B3
:1031CC0041F0C00123F8221048F2800433F8221099
:1031DC0021F4804121F070010904090C81F4405163
:1031EC00214323F8221033F8221021F4E04121F07E
:1031FC0040010904090C0C4323F822408BE724F40A
:10320C00E24424F070042404240C274323F8227095
:10321C00A1E733F822104C040DD533F8221021F419
:10322C00E04121F070010904090C41F4404141F0E6
:10323C00800123F8221033F8221049060DD533F8FB
:10324C00221021F4E04121F070010904090C41F431
:10325C00004141F0C00123F8221033F822100C4C2D
:10326C0089B22140012D18BF81F0200141F40041A9
:10327C0041F0800123F8221033F8221021F4804110
:10328C0021F070010904090CF0E600BF8F8FFFFFDD
:10329C00BF8FFFFF8FBFFFFF4A780B78097BD9BB2D
:1032AC000AB330F8232051060DD530F8232022F430
:1032BC00E04222F070021204120C42F4004242F07E
:1032CC00C00220F8232030F8232022F4E04222F020
:1032DC0040021204120C42F4004242F0800220F828
:1032EC0023200020704730F8232052040DD530F8ED
:1032FC00232022F4E04222F070021204120C42F459
:10330C00404242F0800220F8232030F8232022F49F
:10331C00804222F07002DCE7002A4AD130F82320E8
:10332C0051040DD530F8232022F4E04222F0700233
:10333C001204120C42F4404242F0800220F8232086
:10334C0030F8232052060DD530F8232022F4E04229
:10335C0022F070021204120C42F4004242F0C0023D
:10336C0020F8232048F2800130F8232022F4E04298
:10337C0022F070021204120C42F4004242F0C0021D
:10338C0020F8232030F8232022F4804222F070020F
:10339C001204120C0A4320F8232030F8232022F4C4
:1033AC00E04222F040021204120C114320F82310C8
:1033BC0097E730F8232051040DD530F8232022F460
:1033CC00E04222F070021204120C42F4404242F02D
:1033DC00800220F8232030F8232052060DD530F837
:1033EC00232022F4E04222F070021204120C42F468
:1033FC00004242F0C00220F8232048F2800130F84D
:10340C00232022F4E04222F070021204120C42F447
:10341C00404242F0800220F8232030F8232022F48E
:10342C00E04222F040021204120C0A4320F823203E
:10343C0030F8232022F4804222F07002B3E74B785C
:10344C000A788BB130F8223023F4E04323F04003A8
:10345C001B041B0C83F0100343F4004343F0800364
:10346C0020F822300020704730F8223023F48043BB
:10347C0023F070031B041B0C83F48053ECE70B7BD1
:10348C003BBB4B780A7833B330F822305B060DD552
:10349C0030F8223023F4E04323F070031B041B0CA0
:1034AC0043F4004343F0C00320F82230CB78012BC7
:1034BC000FD030F8223023F4E04323F040031B04F8
:1034CC001B0C83F0200343F4004343F0800320F8EB
:1034DC0022300020704730F822305B040DD530F8D4
:1034EC00223023F4E04323F070031B041B0C43F441
:1034FC00404343F0800320F8223030F8223023F48C
:10350C00804323F070031B041B0C83F44053DAE755
:10351C0011B98023A0F84C30002070470020704770
:10352C0000207047B0F8440080B27047002070470C
:10353C0000EB4200013300F580605B0800EB830375
:10354C00834200D1704731F8022B20F8042BF7E7A7
:10355C002DE9F0474B780446012B0D460A7B40F0D1
:10356C001581D1F810908F6949694F4528BF4F4696
:10357C000ABBBFB2EA883B46FFF7DAFFB4F850004B
:10358C00297880B204F20442090102448F522A784D
:10359C0034F8223023F4E04323F040031B041B0CCB
:1035AC0083F03003002043F4004343F0800324F8FD
:1035BC002230BDE8F087EB7895F800E0022B2E6AFC
:1035CC004FEA0E1C40F0CD80B14530F82E2080F033
:1035DC00B18022F4E04222F070021204120C42F488
:1035EC00014242F0800220F82E2030F82E80B0F8F4
:1035FC0050E0F61B18F040082E6201EB070ABBB234
:10360C001FFA8EFE4DD000F20C42724422F80C30A0
:10361C006A89FFF78DFFB14536BFF31B00233E4689
:10362C006A782B62C5F814A0B3B272BBB4F8502000
:10363C00287892B204F2044100011144425A3E2E01
:10364C00C2F30902425215D9F206425A4FEA5617F2
:10365C0008BF07F1FF3792B242EA87226FEA424273
:10366C006FEA524292B242522A8951462046FFF7E3
:10367C005FFF8CE7425A002EF0D006F0010792B2A1
:10368C0007EB560642EA8622ECE7012AECD1B4F8A5
:10369C005000297880B204F20442090102448B5292
:1036AC00E2E700F20442724422F80C302A89FFF758
:1036BC003FFFB14536BFF31B43463E466A782B624B
:1036CC00C5F814A0B3B24ABBB4F85020287892B213
:1036DC0004F20C4100011144425A3E2EC2F309027D
:1036EC00425210D9425A7709F60608BF07F1FF3744
:1036FC0092B242EA87226FEA42426FEA524292B297
:10370C0042526A89B1E7425A002EF4D006F0010702
:10371C0092B207EB560642EA8622F0E7012AF0D174
:10372C00B4F85000297880B204F20C42090102442A
:10373C008B52E6E722F4E24222F070021204120CE1
:10374C0042F4004242F0800220F82E20B0F85030B3
:10375C0000F204429BB21A44B3B222F80C302A890C
:10376C0085E730F82E20F61B2E62B0F8506052061A
:10377C00BBB2B6B206D500F20C42324422F80C3081
:10378C006A8974E700F204423244E6E7002A3BD12E
:10379C008B690969B0F850008B4284BF5A1A0B46EA
:1037AC002978AA6180B204F20C4209010244885AB9
:1037BC003E2BC0F3090088521AD95809DB068B5AE4
:1037CC0008BF00F1FF309BB243EA80236FEA43430A
:1037DC006FEA53439BB28B522A7834F8223023F48D
:1037EC00804323F070031B041B0C83F44053D9E675
:1037FC000BB98B5AEAE7885A03F0010680B206EB44
:10380C00530340EA8323E5E7CA78022A70D1002BE0
:10381C0038D1B0F850200B7892B200F204401B0162
:10382C001044C25AC2F30902C2520A693E2A44D950
:10383C00C15A5609D70608BF06F1FF3689B241EACC
:10384C0086216FEA41416FEA514189B2C152B4F805
:10385C00500004F20C4180B20144C85A3E2AC0F315
:10386C000900C85234D95009D606CA5A08BF00F10B
:10387C00FF3092B242EA80226FEA42426FEA524231
:10388C0092B2CA52EB69002BA6D02A7834F82210D7
:10389C00480401F0400327D5002B9DD034F822308A
:1038AC0023F4E04323F070031B041B0C43F400438C
:1038BC0043F0C00324F822308EE7C15A002AC0D04E
:1038CC0002F0010689B206EB520641EA8621BCE7FA
:1038DC000AB9CA5AD0E7C85A02F0010680B206EB00
:1038EC00520240EA8222CBE7002B7FF475AFD5E77A
:1038FC00012A5CD18A6909698A4294BF0020501A56
:10390C00A86188BF0A46002B7FF466AFB4F850104C
:10391C002B7889B204F204401B010844C15A3E2A98
:10392C00C1F30901C1522BD9D106C15A4FEA521623
:10393C0008BF06F1FF3689B241EA86216FEA4141A0
:10394C006FEA514189B2C152B4F8500004F20C41F3
:10395C0080B20144C85A3E2AC0F30900C8521AD991
:10396C005009D206CA5A08BF00F1FF3092B242EA9F
:10397C0080226FEA42426FEA524292B2CA522BE75D
:10398C00C15A002ADAD002F0010689B206EB5206BF
:10399C0041EA8621D6E70AB9CA5AEAE7C85A02F0C0
:1039AC00010680B206EB520240EA8222E5E70120D2
:1039BC00FFE500EB4200F0B500F580605D080746BE
:1039CC000C462E46023436B9DB0744BF30F825309E
:1039DC0001F81530F0BD37F8042B013E92B204F813
:1039EC00022C120A04F8012CECE703F007B803F0E0
:1039FC000DB8000086B0042841D8DFE800F00310B1
:103A0C001C2834001F4B20489A6942F004029A612A
:103A1C009B6903F004030193019B06B07047194B9B
:103A2C001A489A6942F008029A619B6903F00803EC
:103A3C000293029BF1E7134B15489A6942F010026E
:103A4C009A619B6903F010030393039BE5E70D4B0D
:103A5C0010489A6942F020029A619B6903F0200396
:103A6C000493049BD9E7074B0B489A6942F0400238
:103A7C009A619B6903F040030593059BCDE70020F9
:103A8C00CBE700BF0010024000080140000C0140D1
:103A9C0000100140001401400018014008B5044911
:103AAC0000F09AFCC0F3C430112800D9FEE708BD21
:103ABC00C473000841F20103984204D041F202039E
:103ACC00984202D0FEE7102070471120704700008A
:103ADC000368134A82B0934211D1124B9A6942F493
:103AEC0000729A619B6903F400730093009B0E4B68
:103AFC001868C30411D40D4902B000F033BC0C4A51
:103B0C009342F4D1074B9A6942F480629A619B69A3
:103B1C0003F480630193019BE9E702B0704700BF97
:103B2C00002401400010024080020020C4730008F1
:103B3C00002801400368124A93420DD1114BDA68F8
:103B4C0042F40072DA60DA6822F40072DA609A6980
:103B5C0022F400729A6170470B4A9342FBD1094BD5
:103B6C00DA6842F48062DA60DA6822F48062DA6041
:103B7C009A6922F480629A619A6922F48062E9E778
:103B8C00002401400010024000280140F0B593B021
:103B9C0004463022002106A803F024F80023E20496
:103BAC00CDE903330593ADF80630029355D541F2B8
:103BBC0002039C4251D8314B20460693FFF77AFF03
:103BCC0007260546002301274FF46022CDE9073371
:103BDC008DF824308DF82C300C9310930E938DF8B7
:103BEC003C30274B06A80A970D921C60FDF736F95E
:103BFC0000283ED103A906A8CDE903570596FCF78A
:103C0C00E9FF002835D106A8FDF720FA002830D1AD
:103C1C0006A8FDF79BF860BB0A2106A8FCF732FF4B
:103C2C0038BB06A8FDF754F8830505D506A8FCF7A4
:103C3C00CDFF80B2ADF8060006A8FDF7EDF9C0B9CE
:103C4C0006A8FDF789F9A0B90C4A936823F4000380
:103C5C009360BDF8060080B20CE00A49204600F0E3
:103C6C0099FB02A906902046FFF718FF069B054614
:103C7C0013B9002013B0F0BD0226A3E700240140C5
:103C8C0080020020C4730008F8B51349064600F002
:103C9C0081FBFFF779F8114F054657F8203073B9BF
:103CAC00B020FFF7A2FE0C490446304600F072FB30
:103CBC0001462046FFF714F957F825301C601C68A4
:103CCC0044B12046FFF77AF82046BDE8F840B02111
:103CDC00FFF78DBEF8BD00BFC0710008BC05002009
:103CEC0037B54FF0E025FCF7C7FEAB6904460093EF
:103CFC00FCF7C2FEAB698442019369694FF47A7395
:103D0C0001F1010108D0019A8A1A5A43B2FBF1F26F
:103D1C0003FB002003B030BD009A8A1A5A43B2FB51
:103D2C00F1F203FB0420F5E7FCF7A6BE704708B5DB
:103D3C00FCF796FEFDF77FFAFFF7F8FF08BD70471A
:103D4C000F4B84B0DA6942F08052DA61DA6902F022
:103D5C0080520192019A9A6942F001029A619A6921
:103D6C0002F001020292029A5A6942F040025A6130
:103D7C005B6903F040030393039B04B0704700BFDF
:103D8C00001002400C4BD3F8FC20D2015EBFD3F8DC
:103D9C00FC2042F08072C3F8FC200022074B5A60D2
:103DAC001A6842F001021A6000BF00BF00BF5868D9
:103DBC00B0FA80F04009704700ED00E0001000E020
:103DCC0008B5FFF7BDFFFFF7DDFFFCF737FEFFF788
:103DDC00B6FF02F0F8F80348FDF732FABDE80840E8
:103DEC0002F0E8B8840200200023C0E90033C0E9E7
:103DFC00023370470023012803F101020AD1142277
:103E0C00DBB25343054A181D1044816829B11A448A
:103E1C001369184713464008EDE77047CC0500209E
:103E2C000120FDF783BA0220FDF780BA0420FDF7CC
:103E3C007DBA0820FDF77ABA1020FDF777BA08B5DD
:103E4C002020FDF773FA4020FDF770FA8020FDF773
:103E5C006DFA4FF48070FDF769FABDE808404FF435
:103E6C000070FDF763BA38B506244FF48065A8B22C
:103E7C00FDF75CFA013C4FEA4505F8D138BD00006E
:103E8C00344A08B51046062300F8043BFFF7ACFF94
:103E9C00072302F118001375FFF7A6FF082302F1A0
:103EAC002C0082F82830FFF79FFF092302F1400015
:103EBC0082F83C30FFF798FF0A23172102F15400D7
:103ECC0082F85030FFF790FF02F1680082F864101E
:103EDC00FFF78AFF02F17C0082F87810FFF784FF6D
:103EEC0002F1900082F88C10FFF77EFF02F1A40023
:103EFC0082F8A010FFF778FF82F8B410282102F1A5
:103F0C00B800FFF771FF02F1CC0082F8C810FFF780
:103F1C006BFF02F1E00082F8DC10FFF765FF02F1A5
:103F2C00F40082F8F010FFF75FFF02F5847082F85E
:103F3C000411FFF759FF02F58E7082F81811FFF784
:103F4C0053FFBDE8084002F5987082F82C11FFF77A
:103F5C004BBF00BFCC05002038B5054CA4F5A075AF
:103F6C00143C201DFEF707FFAC42F9D138BD00BF51
:103F7C000C0700207B4B82B09A69013842F0010299
:103F8C009A619B6903F001030193019B23282CD8B0
:103F9C00DFE810F024002D0034003B004000470007
:103FAC004C00530058005F0068006D0074007D00E9
:103FBC008200890092009B00A000A700B000B50011
:103FCC00BC002B002B002B00C100C8002B002B00C9
:103FDC002B002B00CD00D200D900E000624A5368C0
:103FEC0043F0E06343F00103536002B070475E4A54
:103FFC00536823F0010343F0E063F5E75A4A536832
:10400C0043F0E06343F00203EEE7574A536823F0B2
:10401C000203F0E7544A536843F0E06343F00403AF
:10402C00E2E7514A536823F00403E4E74E4A53682D
:10403C0043F0E06343F00803D6E74B4A536823F0A0
:10404C000803D8E7484A536843F0E06343F0300371
:10405C00CAE7454A536823F0300343F0E06343F06A
:10406C001003C1E7404A536823F03003C3E73E4ACC
:10407C00536843F0E06343F0C003B5E73A4A536832
:10408C0023F0C00343F0E06343F04003ACE7364A4F
:10409C00536823F0C003AEE7334A536843F0E06340
:1040AC0043F44073A0E7304A536823F4407343F061
:1040BC00E06343F4007397E72B4A536823F440738F
:1040CC0043F0E06343F480738EE7274A536823F48C
:1040DC00407390E7244A536843F0E06343F4406331
:1040EC0082E7214A536823F4406343F0E06343F4CE
:1040FC00006379E71C4A536823F440637BE71A4A50
:10410C00536843F0E06343F480536DE7164A5368F9
:10411C0023F480536FE7144A536843F0E06343F48D
:10412C00004361E7104A536823F4004363E70E4AE7
:10413C00536823F0E06357E70B4A536823F0E063BE
:10414C0043F0807350E7084A536823F0E06343F070
:10415C00007349E7044A536823F0E06343F080633B
:10416C0042E700BF001002400000014091FAA1F3A9
:10417C00B3FA83F370B50D0E0F2691FAA1F1B1FAD3
:10418C0081F144599B0006FA03F3890024EA0304E5
:10419C008A402243425170BD91FAA1F3B3FA83F3E2
:1041AC0070B50D0E042691FAA1F1B1FA81F14459C2
:1041BC009B0006FA03F3890024EA03048A40224395
:1041CC00425170BD431C04D00C3151F80C3C5A1CAC
:1041DC0001D100207047834201F10C01F5D101207F
:1041EC0070470000431C2DE9F34106460F4600D1F1
:1041FC00FEE7594B00F00F02C0F3031001F0070863
:10420C0053F82240FFF7F6FBB8F1010F054615D124
:10421C0094FAA4F3B3FA83F30321200E2A589B00DB
:10422C0001FA03F322EA030294FAA4F3B3FA83F338
:10423C009B00994011432950012213E0C7F306203B
:10424C00B8F1030F0AD801A353F828F06B42000809
:10425C0045420008CF420008DD420008FEE7FFF7A8
:10426C0089FE08222146284608F1FF38FFF77EFF19
:10427C00B8F1010F06D817F0080218BF0422214626
:10428C00FFF78AFF94FAA4F2230EB2FA82F2E958ED
:10429C000F239200934094FAA4F2B2FA82F2C7F37D
:1042AC0001170B409200012F23FA02F312D0022FB8
:1042BC003BD0082B21D1042221462846FFF756FF7C
:1042CC001BE07F2801D10922CCE7FFF753FEFAE768
:1042DC000022C7E7042B04D1082221462846FFF709
:1042EC0045FF230A93FAA3F3B3FA83F20123E96897
:1042FC00934021EA14210B43EB60184B9A6942F06E
:10430C0001029A619B6903F001030193019BA6F1E1
:10431C000D03012B14D8124A536823F0E06343F0C9
:10432C008063536002B0BDE8F081042B04D10822F5
:10433C0021462846FFF71AFFEB6823EA1423DBE734
:10434C000F2E02D0133E012EECD8054A536823F0F1
:10435C00E06343F00073E4E764700008001002406F
:10436C0000000140431C06D17047834202D189688A
:10437C00FFF738BF0C310B685A1CF6D1FEE70B68FF
:10438C005A1C01D100207047834201D14868704704
:10439C000C31F4E7431C01D0FFF7F1BF002070474C
:1043AC004B6813B94FF0FF307047834201D1086856
:1043BC0070470C31F4E708B1FFF7F2BF4FF0FF3054
:1043CC00704703460868421C00D17047984201D1DF
:1043DC00886870470C31F5E7431C01D0FFF7F1BF3B
:1043EC00704700000F4B1A6842F001021A605968BE
:1043FC000D4A0A405A601A6822F0847222F4803204
:10440C001A601A6822F480221A605A6822F4FE029A
:10441C005A604FF41F029A604FF00062034B9A608F
:10442C00704700BF001002400000FFF800ED00E0F4
:10443C000438704703681D4A84B093420BD11C4B5F
:10444C009A6942F400629A619B6903F400630093D9
:10445C00009B04B07047B3F1804F0BD103F50433CC
:10446C00DA6942F00102DA61DB6903F001030193BE
:10447C00019BEEE70F4A93420AD10D4BDA6942F0E9
:10448C000202DA61DB6903F002030293029BE0E7AC
:10449C00094A9342DDD1064BDA6942F00402DA6133
:1044AC00DB6903F004030393039BD2E7002C014068
:1044BC000010024000040040000800400368124A4B
:1044CC00934206D102F56442936923F4006393612D
:1044DC007047B3F1804F05D10C4AD36923F0010327
:1044EC00D36170470A4A934205D102F50332D3696E
:1044FC0023F00203F4E7074A9342F2D102F50232A9
:10450C00D36923F00403EBE7002C014000100240B8
:10451C000004004000080040431C10D00C4B984293
:10452C0010D007D8B0F1804F0ED0A3F5806398421D
:10453C000CD0FEE7074B9842FBD1192070476FF067
:10454C000D0070471E2070471C2070471D207047BF
:10455C0000080040002C0140431C10D00C4B98422A
:10456C0010D007D8B0F1804F0ED0A3F580639842DD
:10457C000CD0FEE7074B9842FBD11B2070476FF025
:10458C000D0070471E2070471C2070471D2070477F
:10459C0000080040002C014038B50446FFF74AFFE4
:1045AC000068FFF7B9FFD4E91212FCF7D1FD2068BF
:1045BC00FFF7B2FFFCF7FCFD22681046FFF7CCFFBB
:1045CC0005461046FFF7A8FF85420BD0D4E912121E
:1045DC002846FCF7BDFD2068FFF7BEFFBDE838405C
:1045EC00FCF7E6BD38BD000008B5074B90F8652018
:1045FC0053F82200FEF784FB00F02200A0F1220306
:10460C005842584108BD00BF0C07002008B5074BA5
:10461C0090F8652053F82200FEF772FB00F02100A1
:10462C00A0F121035842584108BD00BF0C070020DF
:10463C0038B515460446B8B1016590F96400FCF72D
:10464C00C5FDB4F87630E16E9BB294F86500194460
:10465C00064BAAB253F82000FEF75AF994F96400FD
:10466C00BDE83840FCF7A4BD38BD00BF0C070020E6
:10467C0048B1836D013306D190F86520024B53F895
:10468C002200FEF70DBB70470C07002048B1836D6C
:10469C00013306D190F86520024B53F82200FEF747
:1046AC0017BB70470C070020836C04381847C36C89
:1046BC000438184730B5044650F8043985B01D68E5
:1046CC0015F0010512D0002200921A6800925B6866
:1046DC000093009BFFF788FF40BB0122204604F1AA
:1046EC00620105B0BDE83040FEF729BB196811F036
:1046FC00020106D001951A6801925B680193019B37
:10470C00E8E71A6812F0040206D002911A680292C5
:10471C005B680293029BDDE719680907DAD50392FF
:10472C001A6803925B680393039BD3E705B030BD13
:10473C0008B52520FCF770FD024B1868BDE8084051
:10474C00FEF764B90C070020262008B5FCF764FDC1
:10475C00034B586818B1BDE80840FEF757B908BDBF
:10476C000C070020272008B5FCF756FD034B986872
:10477C0018B1BDE80840FEF749B908BD0C07002088
:10478C0003460A4910B508680344EFF308829342C4
:10479C0005D90C224FF0FF30054B1A6010BD054AAD
:1047AC00054C121B9342F4D20B60F7E790020020E9
:1047BC00BC1400200050002000040000FEE70000A4
:1047CC001622024B4FF0FF301A607047BC140020C9
:1047DC000120704707B503688DF8071001225B684C
:1047EC000DF10701984703B05DF804FB014800F098
:1047FC00B9B800BF100A0020F8B50E46174615468A
:10480C00ADB100F069FD90B10A4800F0ABF8A842D8
:10481C0028BF284604460028F3D0314622460548D6
:10482C0000F0C1F82D1B264400F072FDE8E7781B60
:10483C00F8BD00BF100A0020014800F056B900BFB7
:10484C004A09002010B5044800F078F9044600F03D
:10485C0095FD204610BD00BF4A0900202DE9F0410E
:10486C0006460F46154694B201F0DCFEF060224677
:10487C0039460B4800F0BFF98046A4EB0804A4B2FB
:10488C0000F07CFD47443CB101F0CCFEF368C01A4B
:10489C00B3689842EBD32D1B2846BDE8F08100BFCE
:1048AC004A0900202DE9FF470646884617461C4654
:1048BC009DB201F0B7FE0DF10E09F0602B463A46A1
:1048CC0041460F48CDF8009000F0DBF9824600F02D
:1048DC0055FDBDF80E30ED1AADB21F44BAF1000F04
:1048EC0004D0641B204604B0BDE8F087002DF9D03D
:1048FC0001F098FEF368C01AB3689842DED3F0E773
:10490C004A090020014800F050B900BF4A090020B4
:10491C0008B5034800F036F80028FADC08BD00BFE3
:10492C00100A002000F0B4BC08B50A2001F07EFE8D
:10493C00014B187808BD00BF490900204FF47A726A
:10494C000021034BC3E90112024A1A60704700BFF1
:10495C0018070020C47000080023A0F88230A0F8CB
:10496C0080307047B0F88230B0F880209BB292B2A1
:10497C00981A7F30434203F07F0300F07F0058BF4A
:10498C0058427047B0F88030B0F882209BB292B297
:10499C0003F18000801A434203F07F0300F07F0094
:1049AC0058BF58427047F8B5B0F880600446B6B2AC
:1049BC00B0F88000C6F1800696420F46154680B2CC
:1049CC000AD9204402F054F9B4F880301D4405F0A3
:1049DC007F05A4F88050F8BD3246204402F048F917
:1049EC002046AA1BB919EDE7B0F88020B0F8823048
:1049FC0092B29BB29A422BBFB0F88030B0F88230A2
:104A0C00B0F88220C3F1800328BF9B1A9BB20B80A5
:104A1C00A0F88430B0F882309BB218447047B0F8DC
:104A2C008220B0F88430134403F07F03A0F8823066
:104A3C0070470023A0F8C230A0F8C030C023A0F803
:104A4C00C4307047B0F8C23082B09BB2ADF80630BB
:104A5C00B0F8C010BDF8063089B29BB29942B0F8DC
:104A6C00C03002469BB21ED37F2B08D9B0F8C030A1
:104A7C009BB2802B09D1BDF806309BB22BB1B2F89A
:104A8C00C0309BB2D01802B07047BDF80630002081
:104A9C009BB2402BF7D9B2F8C0309BB2A2F8C4300D
:104AAC00A2F8C000EBE7BDF80610403389B28B4288
:104ABC00E5D30020E7E7B0F8C030194489B2A0F87C
:104ACC00C010B0F8C020B0F8C43092B29BB29A4279
:104ADC0024BFC023A0F8C430B0F8C0309BB2BF2BA9
:104AEC0084BF0023A0F8C0307047B0F8C03082B04B
:104AFC009BB2ADF80430B0F8C43002469BB2ADF8AE
:104B0C000630B0F8C210BDF8043089B29BB299429D
:104B1C0008D8BDF80430B0F8C2209BB292B2981AF3
:104B2C0002B07047BDF80600BDF80410B2F8C230F0
:104B3C0080B289B29BB20844C01AF1E7B0F8C02029
:104B4C0082B092B2ADF80420B0F8C420034692B201
:104B5C00ADF80620B0F8C210BDF8062089B292B2AA
:104B6C00914204BF0022A0F8C220B0F8C210BDF8D8
:104B7C00042089B292B2914214D0B0F8C22092B201
:104B8C00511C89B2A0F8C210B3F8C210805CBDF8F9
:104B9C00062089B292B2914202D30022A3F8C2201D
:104BAC0002B070474FF0FF30FAE7B0F8C03082B077
:104BBC009BB2ADF80430B0F8C4309BB2ADF80630FF
:104BCC00B0F8C220BDF8063092B29BB29A4224BF14
:104BDC000023A0F8C230B0F8C220BDF8043092B265
:104BEC009BB29A420FBF4FF0FF30B0F8C2309BB26D
:104BFC00C05C02B0704737B50446B4F8C030084604
:104C0C009BB2ADF80430B4F8C4309BB2ADF80630AA
:104C1C00B4F8C210BDF8063089B29BB2994224BFD9
:104C2C000023A4F8C230B4F8C210BDF8043089B225
:104C3C009BB2994294BFBDF80450BDF80650B4F82D
:104C4C00C230B4F8C210ED1AADB2954228BF154669
:104C5C0089B22A46214402F00BF8B4F8C230284637
:104C6C002B449BB2A4F8C230B4F8C220BDF8063075
:104C7C0092B29BB29A4224BF0023A4F8C23003B074
:104C8C0030BDF7B51C46B0F8C030089D9BB2ADF8EE
:104C9C000430B0F8C4309BB2ADF80630B0F8C26046
:104CAC00BDF80630B6B29BB29E4224BF0023A0F8DA
:104CBC00C230B0F8C260BDF80430B6B29BB29E42AE
:104CCC0094BFBDF80430BDF80630B0F8C2609B1B31
:104CDC009BB2A34228BF23460024B0F8C260B6B2F0
:104CEC000644A7B2BB4210D82B80B0F8C2201344A4
:104CFC009BB2A0F8C230B0F8C220BDF8063092B218
:104D0C009BB29A4220D2002018E016F804C08C45C1
:104D1C0016D1B0F8C2309BB201333B449BB2A0F821
:104D2C00C230B0F8C220BDF8063092B29BB29A42A3
:104D3C0024BF0023A0F8C23001202F8003B0F0BDA7
:104D4C0002F804C00134CCE70023A0F8C230DAE743
:104D5C00D0F8D43210B500EB8300D0F8C0428CB13F
:104D6C00D0F8C4321BB194F80002FF2801D1002006
:104D7C0010BD9B68214694F801229847FF2384F8C4
:104D8C000032F4E70320F3E70A230380004870475E
:104D9C009803002070B5832106460F4800F072FC82
:104DAC00012105460C4800F06DFC822104460A489E
:104DBC0000F068FC0DB11022AA711CB140222271C6
:104DCC000022627118B14022027100224271432309
:104DDC000148338070BD00BF9402002070B5832160
:104DEC0006460F4800F04EFC012105460C4800F029
:104DFC0049FC822104460A4800F044FC0DB1102203
:104E0C00AA711CB1402222710022627118B1402299
:104E1C0002710022427143230148338070BD00BFF0
:104E2C00D802002070B5832106460F4800F02AFCFA
:104E3C00012105460C4800F025FC822104460A4855
:104E4C0000F020FC0DB11022AA711CB100222271BD
:104E5C000222627118B100220271022242714323B4
:104E6C000148338070BD00BF1C03002038B5D0F85A
:104E7C00D4320446B03350F823508DB101F002F80F
:104E8C00D4F8D432C5F80C0204EB8304D4F8C43241
:104E9C00D5F80402DB6805F503719847002038BD8E
:104EAC000320FCE7F8B5D0F8D4620A4600EB86067E
:104EBC00D6F8C05235B3142701F00F0C07FB0C07C2
:104ECC00BB698BB14FF0280ED0F8C8420EFB0C44D6
:104EDC00246AB3FBF4FC04FB1C332BB91A46BB61EC
:104EEC0000F0C2FF0020F8BD0023C5F81432D6F83C
:104EFC00C4321B69002BF5D0D5F8080205F50471F6
:104F0C009847EFE70320EEE7F7B50022D0F8D4324C
:104F1C00044600EB8303D3F8C0620D468DF80520E0
:104F2C00ADF80620002E65D091F800C01CF0600290
:104F3C0029D0202A5AD1CA884F78F2B11CF0800FA0
:104F4C000ED0D3F8C432314638469B689847EA886D
:104F5C003146072A28BF0722204600F01EFE09E032
:104F6C00402A28BF4022314686F8007286F801227A
:104F7C0000F028FE002003B0F0BDD3F8C432384650
:104F8C009B689847F6E74B780B2B2FD801A252F869
:104F9C0023F000BFD14F0008814F0008F94F0008E3
:104FAC00F94F0008F94F0008F94F0008F94F0008B5
:104FBC00F94F0008F94F0008F94F0008E14F0008BD
:104FCC00F14F000890F89C32032B0FD102220DF107
:104FDC000601C1E790F89C32032B07D101220DF199
:104FEC000501B9E790F89C32032BC3D02946204623
:104FFC0000F0A6FD0320BEE738B50446002582214B
:10500C0000F005FF01212046A4F84C5000F0FFFEF3
:10501C0083212046A4F8785100F0F9FED4F8D4325C
:10502C00256604EB8303D3F8C02252B1D3F8C43203
:10503C005B689847D4F8D432B03344F82350C4F8A2
:10504C00BC52002038BD0000F8B504462C4D4FF47E
:10505C0007720021284601F0C5FDD4F8D432B033D4
:10506C0044F82350237CC4F8BC52CBBB4FF40073E0
:10507C0082210222204600F0C0FE01214FF4007371
:10508C00A4F84C100222204600F0B7FE0126102393
:10509C00002703228321A4F8623020460823A4F8B9
:1050AC00786100F0AAFED4F8D432A4F8606004EB66
:1050BC008303D3F8C432C5F804721B689847D5F83B
:1050CC000422C5F81472C5F81872B2B1237C93B9D6
:1050DC004FF400733146204600F0CDFE0020F8BDA1
:1050EC00402382210222204600F087FE012140232A
:1050FC00A4F84C10C6E74023ECE70220EFE700BF12
:10510C002807002039B1D0F8D43200EB8300C0F866
:10511C00C4120020704703207047D0F8D432B0334B
:10512C0050F823302BB10020C3F80812C3F810221A
:10513C00704703207047D0F8D432B03350F8233086
:10514C001BB10020C3F80412704703207047D0F83D
:10515C00D43210B5B03350F823207AB1D2F81442BF
:10516C0001236CB9C2F81432D2F810328221D2F871
:10517C000822036400F078FE204610BD0320FCE7F3
:10518C001846FAE7D0F8D42208B5B03250F82220ED
:10519C0062B1037CD2F8042233B94FF400730121BD
:1051AC0000F069FE002008BD4023F8E70320FAE771
:1051BC00D0F8D42208B5B03250F8223033B10023E5
:1051CC0001211A4600F057FE002008BD0320FCE721
:1051DC000020704721280ED022281DD0202808D16D
:1051EC000A68184B1A600A791A714A795A718A79C5
:1051FC009A7100207047134B1A680A701A68120AC9
:10520C004A705A888A70DA78CA701A790A715A798F
:10521C004A719B798B71ECE70B4A4B8812780B49DE
:10522C00002A14BF1A46012202F001020A700A7801
:10523C0012B10021064A1160064AC3F340031370F1
:10524C00D7E700BFA4030020C103002049090020B8
:10525C00440900204809002008B50948FFF77CFBE9
:10526C000848FFF7E6FB0122074B06481A70FFF7C8
:10527C00E9FB01460548FFF75EFF002008BD00BFB3
:10528C00100A00204A090020C0030020980A0020C0
:10529C0010B50C4C22789AB90B490C4800F0A0F8C8
:1052AC0070B90B49094800F0AEF848B909490748EC
:1052BC00FFF728FF20B9054800F0BEF80123237042
:1052CC0010BD00BF960A0020F4030020980A0020AD
:1052DC0060030020AC0300200A4B10B51C6814B10D
:1052EC00FBF7CAFB041B084B93F89C32032B07D12A
:1052FC00022C05D8054B1878C0B200F0010010BD87
:10530C000020FAE744090020980A002049090020EF
:10531C0037B50F4CD4F8BC32D3F81432ABB90D48B6
:10532C000DF10601FFF760FBBDF80630054663B1D1
:10533C00FBF7A2FB084B29461860BDF80620204657
:10534C00FFF7EBFE2046FFF702FF03B030BD00BFB6
:10535C00980A0020100A00204409002010B50024EF
:10536C00044B05481C60FFF75AFBFFF7D1FF2046A2
:10537C0010BD00BF44090020100A002038B50A4DAA
:10538C002B780BB1002038BD0848FFF75BFB0146BA
:10539C000028F7D0012406482C70FFF7CCFE0448F7
:1053AC00FFF7F0FE2046EEE7C00300204A0900207C
:1053BC00980A002008B509880648FFF77CFB0022F4
:1053CC00054B1A70FFF7DAFF10B90448FFF7F0FE2F
:1053DC00002008BD4A090020C0030020980A0020C4
:1053EC0078B10023C0F8B832C0F8C432C0F8D0325B
:1053FC0009B1C0F8B4120123027080F89C3200F09D
:10540C00C9BC03207047002313B50446ADF8063021
:10541C0081B1CB6AC0F8B81223B10DF106009847E0
:10542C00C4F8D0020020D4F8D8320133C4F8D832F2
:10543C0002B010BD0320FBE700F0D8BCD0F8B832A6
:10544C000BB11B6818471846704708B5D0F8B8322E
:10545C005B689847002818BF032008BD38B500F2D8
:10546C00AA250446284600F060FB012394F8AA12F2
:10547C00C4F89432B4F8B032C4F8983201F01F0377
:10548C00012B08D0022B0CD08BB929462046BDE845
:10549C00384000F015B929462046BDE8384000F0E8
:1054AC0073BA29462046BDE8384000F09CBA204625
:1054BC00BDE8384001F0800100F0B0BC70B5044686
:1054CC00164609BBD0F89432032B0CD1D0E95732D5
:1054DC0093420AD99B1A9A4228BF1A463146C0F801
:1054EC005C3100F07CFB002070BD90F89C32032BEB
:1054FC0006D1D0F8B8321B6913B1C0F8D412984752
:10550C00204600F074FBEEE790F89C32032BEAD1B6
:10551C00D0F8B8329B69002BE5D0BDE87040002272
:10552C00C0F8D422184770B5044616460D4600291B
:10553C003DD1D0F89432022B0ED1D0E907329342F0
:10554C0012D99A1A3146C26100F034FB2B462A4616
:10555C002946204600F08FFC94F8A03213B10023AA
:10556C0084F8A032002070BD0CD18269934209D816
:10557C00D0F898329A4205D20A4600F01BFBC4F8C8
:10558C009852E3E794F89C32032B08D1D4F8B83244
:10559C00DB6823B100222046C4F8D422984780212E
:1055AC00204600F03BFC204600F02CFBD4E790F8A2
:1055BC009C32032BD6D1D0F8B8325B69002BD1D0FA
:1055CC00BDE870400022C0F8D4221847F8B501237A
:1055DC00002180F89C32D0F8B8320446C0F89412FE
:1055EC004160C0F8A41280F8A012B3B900260022C2
:1055FC004025012711464023204600F0FEFB2B4698
:10560C00002280212046A4F86471C4F8605100F097
:10561C00F4FB3046A7842562F8BD5B68002BE5D00F
:10562C0098470028E2D00326E1E701740020704778
:10563C0090F89C32042B1EBF90F89C32DBB280F8A1
:10564C009D32042380F89C320020704790F89C32E5
:10565C00042B02BF90F89D32DBB280F89C32002004
:10566C00704708B590F89C22032A05D1D0F8B832BF
:10567C0013B1DB6903B19847002008BD00207047C7
:10568C000020704710B5428803789A420AD90478F2
:10569C002044234444789BB2052CF6D184788C4268
:1056AC00F3D110BD0020FCE710B50446802100F0BA
:1056BC00B5FB2046BDE81040002100F0AFBB000058
:1056CC0073B50B78044603F06003202B0D4609D00C
:1056DC00402B07D093B12046FFF7E6FF0025284664
:1056EC0002B070BD29462046D4F8D432AE3354F8FB
:1056FC0023309B6802B0BDE8704018474B78092BEB
:10570C00E9D801A252F823F0335900087759000860
:10571C00E35600085B590008E35600082D580008B2
:10572C003D570008E3560008075900086F58000859
:10573C0000234988ADF806300B0A013B062BCAD86A
:10574C0001A252F823F000BF71570008A3570008BC
:10575C00BD570008E3560008E3560008FF57000841
:10576C0015580008D0F8B4321B68207C0DF10601E6
:10577C009847EA88002A00F0A380BDF80630002B79
:10578C00A9D09A4228BF1A460146ADF806202046F9
:10579C0000F003FAA2E7027CD0F8B83232B99B6A67
:1057AC000DF10600984702234370E2E7DB6AF7E746
:1057BC00C9B2D0F8B432052912D8DFE801F00307DA
:1057CC00090B0D0F5B68002BCFD184E79B68FAE7C0
:1057DC00DB68F8E71B69F6E75B69F4E79B69F2E7BE
:1057EC00DB69002B3FF477AF0DF10602007C984784
:1057FC00BFE7037C002B7FF46EAFD0F8B8320DF10D
:10580C0006005B6B9847B4E7037C002B7FF463AF17
:10581C00D0F8B8320DF106001B6B98470723C3E78D
:10582C008B88002B7FF457AFCB88002B7FF453AFC2
:10583C004D887F2D3FF64FAF90F89C32032B3FF4F1
:10584C004AAFEDB2294680F89E5200F006FB204686
:10585C0000F0CDF91DB1022384F89C323EE7012300
:10586C00FAE78978474D0129297003D9FFF71CFF06
:10587C00032534E790F89C32022BDEB208D0032EBD
:10588C0017D0FFF711FF20462978FFF7DEFDEFE771
:10589C00B1B101214160FFF7D1FD0546204625B18C
:1058AC00FFF702FF84F89C6219E700F0A0F90323CC
:1058BC00D2E749B90223416080F89C32FFF7C5FD5D
:1058CC00204600F094F909E741680129F8D0C9B2E3
:1058DC00FFF7BBFD297820466160FFF7AFFD054659
:1058EC000028EDD02046FFF7DFFE20462179FFF798
:1058FC00ACFD022384F89C32F1E6CA88012A7FF4BD
:10590C00EAAE90F89C120229CBB207D8002B3FF4D8
:10591C00E2AE0146002341F8083F38E7032B7FF441
:10592C00DAAE011D33E790F89C32013B022B3FF6B7
:10593C00D2AECA88022A7FF4CEAED0F8A432014689
:10594C00002B0CBF0123032341F80C3F1FE74B88AE
:10595C00012B02D1C4F8A432B2E7022B7FF4BBAE08
:10596C008B881B0A80F8A032AAE790F89C32013B86
:10597C00022B3FF6B0AE4B88012B7FF4AFAE002369
:10598C00E8E700BF740D002070B50B78044603F0F7
:10599C0060025B060E4601D5402A1FD194F89C325A
:1059AC00013B022B1AD831792046022917D8FFF770
:1059BC0065FE88B9D4F8B8329B686BB1C4F8D402D0
:1059CC003146204698470546F3881BB915B9204641
:1059DC0000F00DF9284670BD0325F5E72046FFF7CA
:1059EC0063FE0025F6E770B50B78044603F0600300
:1059FC00202B0E468A880D7957D0402B55D01BB1E1
:105A0C002046FFF751FE3CE04B78012B3BD0032B9B
:105A1C0024D0002BF4D190F89C32022BD9B260D058
:105A2C000329EDD112F0800F4FF0140205F00F0393
:105A3C0002FB030366D09B8C002BE1D0142605F0EF
:105A4C007F0303FB0666802D064467D0294620465B
:105A5C0000F0F2F9002866D0012360E090F89C3247
:105A6C00022BDAB233D0032ACAD14B8833B9690678
:105A7C0004D0F38813B9294600F0D0F9204600F081
:105A8C00B6F8002070BD90F89C32022BDAB21ED012
:105A9C00032AB5D14B88002BF3D16B0602D02946D3
:105AAC0000F0C3F9204600F0A2F829462046FFF783
:105ABC00E7FD0028E5D1D4F8B832C4F8D4029B68CD
:105ACC00002BDED031462046BDE8704018476A06F0
